:020000040800F2
:10200000881C002001210008092A00087B290008FB
:10201000052A000889240008033B0008000000008E
:10202000000000000000000000000000693400080B
:102030000F2700080000000019330008553500087C
:102040001B2100081B2100081B2100081B21000880
:102050001B2100081B2100081B2100081B21000870
:102060001B2100081B2100081B2100088D240008EB
:102070001B2100081B210008B92400081B210008AF
:102080001B2100081B2100081B2100081B21000840
:102090001B2100081B2100081B2100081B21000830
:1020A0001B2100081B2100081B2100081B21000820
:1020B000193600081B2100081B2100081B210008FD
:1020C0001B2100081B2100081B2100081B21000800
:1020D0001B210008A13800081B2100081B21000853
:1020E0001B2100081B2100081B210008DFF80CD071
:1020F00000F05AF800480047FD3E0008881C002008
:102100000648804706480047FEE7FEE7FEE7FEE791
:10211000FEE7FEE7FEE7FEE7FEE7FEE759350008CB
:10212000ED20000840EA01039B0703D009E008C93D
:10213000121F08C0042AFAD203E011F8013B00F88C
:10214000013B521EF9D2704710B5044604E00B78EB
:1021500000F8013B03B1491C521EF8D2204610BDC5
:10216000421C10F8011B0029FBD1801A704710B5E2
:10217000002200E0521C835C8C5CA34201D1002B46
:10218000F8D1D8B2E1B2401A10BD30B505460020F2
:10219000034600E05B1C934205D2EC5CC85C201A4D
:1021A00001D1002CF6D130BD064C074D06E0E068A9
:1021B00040F0010394E8070098471034AC42F6D38E
:1021C000FFF798FFE84C0008084D000800B593B0F1
:1021D00001214FF4017001F0CDF84FF4004001F0FF
:1021E0009DF80121084601F0A5F80120ADF848004E
:1021F00000208DF84B0003208DF84A0012A93C48BE
:1022000000F015FB3B4800F09DF93B4802903B482D
:10221000039000200490202005900020069080204C
:102220000790400008908000099020200A9000024A
:102230000B9000200C9002A92E4800F048FA0122D1
:1022400006212C4800F03AFA01212A4800F06EF9E4
:102250000B208DF8040001208DF8050000208DF87A
:10226000060001208DF8070001A800F0CFFB002038
:102270000D908DF838008DF839004FF400200F9044
:102280000020109001208DF844000DA91A484C3808
:1022900000F06CF807230122002117484C3800F0A9
:1022A0008DF8012114484C3800F035F8012112480E
:1022B0004C3800F03BF801210F484C3800F020F872
:1022C0000D484C3800F0D6F800BF0B484C3800F0F1
:1022D00042F80028F9D108484C3800F0D0F800BF87
:1022E00005484C3800F02DF80028F9D113B000BD96
:1022F00000080140080002404C2401409C000020DE
:1023000021B1826842F00102826003E0826822F01B
:1023100001028260704721B1826842F4807282605B
:1023200003E0826822F480728260704721B1826883
:1023300042F48012826003E0826822F4801282609C
:102340007047014600208A6802F004020AB10120A9
:1023500000E000207047014600208A6802F0080271
:102360000AB1012000E000207047000030B50246AD
:102370000020002350680F4C20400D790C6844EA7F
:1023800005242043506090680B4C2040D1E9025452
:102390002C434D7944EA450420439060D06A20F4F0
:1023A00070000C7C641EE4B2234340EA0350D06208
:1023B00030BD0000FFFEF0FFFDF7F1FFF0B5044671
:1023C0000D4600200021092D11DDE068A5F10A0667
:1023D00006EB4607072606FA07F18843A5F10A0629
:1023E00006EB460603FA06F10843E0600CE02069BC
:1023F00005EB4507072606FA07F1884305EB450676
:1024000003FA06F108432061072A0FDA606B561EB3
:1024100006EB86071F2606FA07F18843561E06EBD1
:10242000860605FA06F10843606322E00D2A0FDAFA
:10243000206BD61F06EB86071F2606FA07F1884396
:10244000D61F06EB860605FA06F10843206310E066
:10245000E06AA2F10D0606EB86071F2606FA07F1D1
:102460008843A2F10D0606EB860605FA06F108433D
:10247000E062F0BD816841F00801816070478168C9
:1024800041F004018160704700BFFEE710B50420F1
:1024900000F0FEF828B1042000F03AF8002001F026
:1024A0004BFB022000F0F4F828B1022000F030F8D5
:1024B000012001F041FB10BD10B54FF4005000F0B9
:1024C000E7F878B14FF4005000F022F80648008891
:1024D000064909880844C0F30A000349088000201F
:1024E0000349087010BD00003E000020400000209D
:1024F0004200002000F0805111B10349086001E062
:102500000249486070470000040402400000024095
:1025100000F0805111B10349086001E002494860B0
:1025200070470000040402400000024021B102682C
:1025300042F00102026004E002684FF6FE731A40A6
:102540000260704701684FF6FE7211400160002181
:10255000016041608160C1604B49884208D14A49AD
:102560000839496841F00F01474A083A51608AE04A
:1025700045491431884208D143490839496841F036
:10258000F001414A083A51607DE03F4928318842D4
:1025900008D13D490839496841F470613A4A083A1E
:1025A000516070E038493C31884208D136490839D9
:1025B000496841F47041344A083A516063E0324955
:1025C0005031884208D130490839496841F47021B6
:1025D0002D4A083A516056E02B496431884208D1AF
:1025E00029490839496841F47001274A083A51607D
:1025F00049E025497831884208D12349083949689A
:1026000041F07061204A083A51603CE01F4988421D
:1026100006D1011F096841F00F01021F116032E06D
:102620001A491431884208D11849091F096841F034
:10263000F001164A121F116025E014492831884222
:1026400008D11249091F096841F470610F4A121F2D
:10265000116018E00D493C31884208D10B49091F2F
:10266000096841F47041094A121F11600BE00749E3
:102670005031884207D10549091F096841F470218A
:10268000024A121F1160704708000240080402400D
:1026900001460020002201F0805313B1054B1A6857
:1026A00001E0054B1A6802EA01030BB1012000E0CA
:1026B0000020704700040240000002401AB1036885
:1026C0000B43036002E003688B430360704710B55F
:1026D0000022026847F6F0739A430C6A8B68234322
:1026E0000C6923434C6923438C692343CC692343FE
:1026F0004C6A23438C6A23431A430260CB684360CD
:102700000B6883604B68C36010BD416070477047C1
:102710000149C860704700000020024030B50446FF
:1027200004254FF4302000F06FF80546042D17D132
:102730000C48006940F002000A49086108464461FB
:10274000006940F0400008614FF4302000F05CF870
:1027500005460448006941F6FD71084001490861D9
:10276000284630BD0020024004200B49C96801F012
:10277000010109B101200EE00749C96801F0040117
:1027800009B1022007E00449C96801F0100109B14C
:10279000032000E004207047002002400348006945
:1027A00040F08000014908617047000000200240AD
:1027B00070B504460D460426F00200F025F80646E2
:1027C000042E11D10948006940F001000749086151
:1027D0002580F00200F018F806460448006941F62A
:1027E000FE71084001490861304670BD002002407A
:1027F0000248034948600348486070472301674521
:1028000000200240AB89EFCD00B502460423FFF75C
:10281000ABFF034603E0FFF7A7FF0346521E012B61
:1028200001D1002AF7D102B90523184600BD2DE9D0
:10283000F041024600250026002000230024002746
:1028400091F803C00CF00F0591F803C00CF0100CC8
:10285000BCF1000F03D091F802C04CEA050591F8D5
:1028600000C0BCF1000F31D0146800202BE04FF005
:10287000010C0CFA00F3B1F800C00CEA03069E420A
:1028800020D183004FF00F0C0CFA03F7BC4305FA7C
:1028900003FC4CEA040491F803C0BCF1280F06D1F4
:1028A0004FF0010C0CFA00FCC2F814C00AE091F8D9
:1028B00003C0BCF1480F05D14FF0010C0CFA00FC2D
:1028C000C2F810C0401C0828D1D31460B1F800C071
:1028D000BCF1FF0F34DD546800202EE000F1080C3D
:1028E0004FF0010808FA0CF3B1F800C00CEA030637
:1028F0009E4221D183004FF00F0C0CFA03F7BC432A
:1029000005FA03FC4CEA040491F803C0BCF1280F5B
:1029100005D100F1080C08FA0CF8C2F8148091F8FF
:1029200003C0BCF1480F07D100F1080C4FF00108BB
:1029300008FA0CF8C2F81080401C0828CED3546066
:10294000BDE8F0810246002093680B400BB10120E6
:1029500000E00020704702460020D3680B400BB116
:10296000012000E00020704741617047016170471D
:102970000AB1016100E04161704700BFFEE700005D
:1029800008B50121082000F0F5FC48208DF803006F
:1029900040F60200ADF8000003208DF80200694601
:1029A0000148FFF744FF08BD000C014010B50221AB
:1029B0000648FFF7D0FF20B902210448FFF7D6FFF1
:1029C00003E002210148FFF7CFFF10BD00080140DE
:1029D00008B50121042000F0CDFC10208DF8030083
:1029E0000620ADF8000003208DF802006946044877
:1029F000FFF71DFF06210248FFF7B8FF08BD0000E2
:102A00000008014000BFFEE77047000070B50021DC
:102A100000230F22C47804B3154C246804F4E06446
:102A2000C4F5E064210AC1F10403CA40447804FA01
:102A300003F184781440214309010E4C0678A15516
:102A4000047804F01F050124AC4005786D11AD0039
:102A500005F1E025C5F8004109E0047804F01F0500
:102A60000124AC40044D0678761145F8264070BD2F
:102A70000CED00E000E400E080E100E002490143E9
:102A8000024A1160704700000000FA050CED00E0FA
:102A900070B500240EE00021204600F0EAF8002581
:102AA00004E0002000F07EF9681CC5B2802DF8DB40
:102AB000601CC4B2082CEEDB70BD000008B501211B
:102AC000082000F057FC14208DF8030003208DF837
:102AD00002004FF48070ADF8000069460A48FFF725
:102AE000A6FE4FF40070ADF8000069460648FFF7F7
:102AF0009EFE012211020448FFF73AFF0122510213
:102B00000148FFF735FF08BD000C014070B50546D0
:102B1000002419E080202041284008B1012000E075
:102B2000002002464FF400710E48FFF721FF0122FA
:102B300011020C48FFF71CFF00224FF48071094876
:102B4000FFF716FF601CC4B2082CE3DB0122110260
:102B50000448FFF70DFF00224FF480710148FFF792
:102B600007FF70BD000C014010B5012251020A4858
:102B7000FFF7FEFE012211020748FFF7F9FE0022CF
:102B80004FF400710448FFF7F3FE00224FF4807108
:102B90000148FFF7EDFE10BD000C014010B500220A
:102BA0004FF400710648FFF7E3FE012211020448CA
:102BB000FFF7DEFE012251020148FFF7D9FE10BDEA
:102BC000000C014070B5002406E0002500E06D1CFB
:102BD000B5F57A7FFBD3641CB4F57A7FF5D3FFF7A4
:102BE0006DFFAE2000F0CEF8D52000F0CBF88020AD
:102BF00000F0C8F8A82000F0C5F83F2000F0C2F8A7
:102C0000D32000F0BFF8002000F0BCF8402000F016
:102C1000B9F8A12000F0B6F8C82000F0B3F8DA2027
:102C200000F0B0F8122000F0ADF8812000F0AAF812
:102C3000CF2000F0A7F8D92000F0A4F8F12000F090
:102C4000A1F8DB2000F09EF8302000F09BF8A420D3
:102C500000F098F8A62000F095F88D2000F092F88A
:102C6000142000F08FF8AF2000F08CF8FFF710FF71
:102C700070BD70B505460C4645F0B00000F082F816
:102C8000102141EA141000F07DF804F00F0000F06C
:102C900079F870BD2DE9F04105460E4617462FB173
:102CA000082D03D216B1A819082801D9BDE8F08172
:102CB000002415E02919C8B20021FFF7DAFF4FF010
:102CC000000808E008EBC411785C00F06BF808F12C
:102CD000010000F0FF08B8F1800FF3D3601CC4B20C
:102CE000B442E7DB00BFE1E72DE9F04105460E46BF
:102CF0001746721ED206110E6A1E5206100EFFF7FC
:102D0000B8FF002409E0A7F12001134A02EB0111EA
:102D1000085D00F047F8601CC4B2082CF3DB721E9B
:102D2000D206110E6A1E012303EB4202D0B2FFF756
:102D3000A0FF00240BE0A7F12001074A02EB0112DB
:102D400004F10801505C00F02DF8601CC4B2082C9E
:102D5000F1DBBDE8F0810000D84600082DE9F04124
:102D600007460E461546002407E02A5D3019C1B219
:102D70003846FFF7B9FF601CC4B2285D0028F4D1C3
:102D8000BDE8F08110B50446FFF7EEFE7820FFF7AE
:102D9000BDFE0020FFF7BAFE2046FFF7B7FEFFF7A3
:102DA000FDFE10BD10B50446FFF7DEFE7820FFF7EC
:102DB000ADFE4020FFF7AAFE2046FFF7A7FEFFF773
:102DC000EDFE10BD2DE9F041D8B004460D46164683
:102DD0000A22D3A12046FFF7D8F900285AD104F1DE
:102DE0000A00579060223FA957A801F064FB28B35E
:102DF000602227A957A801F05EFBF8B160220FA955
:102E000057A801F058FBC8B1C8493FA801F0BCFA67
:102E1000A0B1C74927A801F0B7FA78B1C5490FA8F2
:102E200001F0B2FA50B15798007838B9BF4800683D
:102E300020B1BE480068B0F5C04F08D9BEA23146E7
:102E4000284601F015FB012058B0BDE8F081FFF7DE
:102E5000CFFC0020BC490870BC490870BC49086020
:102E6000BC49BD4800F0FEFE40B9FFF797FCBBA28D
:102E70003146284601F0FCFA0120E5E7FFF78EFC19
:102E80000120B1490870B9A23146284601F0F0FA94
:102E90000120D9E70922B9A12046FFF776F90028D9
:102EA0007CD1A948007830B9B7A23146284601F054
:102EB000DFFA0120C8E704F10900579060223FA91A
:102EC00057A801F0F8FA90B3602227A957A801F09B
:102ED000F2FA60B360220FA957A801F0ECFA30B300
:102EE0005798007818BB0EA93FA801F04DFAF0B131
:102EF0000DA90FA801F048FAC8B104AA05A927A88E
:102F000001F096F998B19DF8100080B187490E98AC
:102F1000096888420BD8854800680E99401A9DF8C8
:102F20001010884203D30E9800F0010030B19AA22D
:102F30003146284601F09CFA012085E79DF81010E3
:102F400005A800F0A5F907460D998F4206D096A274
:102F50003146284601F08CFA012075E77C490E982D
:102F60000968884206D994A23146284601F080FAC1
:102F7000012069E776490E98096888420FD29DF8CA
:102F800010100E98084472490968884207D98EA229
:102F90003146284601F06CFA012055E76FE06C4994
:102FA0000E98096888421CD1FFF722FC6A4A0E99E4
:102FB00088189DF8102005A900F06CFE40B9FFF7B5
:102FC000EDFB85A23146284601F052FA01203BE78D
:102FD000FFF7E4FB5E4800689DF8101008445C4968
:102FE000086029465A480268102E01D201202BE7BA
:102FF0004F2001F8010B542001F8010B412001F88A
:10300000010B2C2001F8010B412001F8010B43209A
:1030100001F8010B4B2001F8010B2C2001F8010BEA
:103020001AB9302001F8010B22E0002011E00A2338
:10303000B2FBF3FC03FB1C233033844600F1010890
:1030400008F0FF000DF1040808F80C300A23B2FB69
:10305000F3F2002AEBD108E0431EDBB218460DF173
:10306000040C1CF8033001F8013B0028F4D100BF28
:103070000A2001F8010B002008700120E4E65AA1A3
:103080002046FFF774F890BB2F48007828B13048ED
:10309000006826490968884206D055A2314628466C
:1030A00001F0E6F90120CFE601F0B6FA30B954A2FA
:1030B0003146284601F0DCF90120C5E6FFF798FB10
:1030C00001F0BEFA21490870FFF768FB1F4800783D
:1030D00030B94FA23146284601F0CAF90120B3E6C3
:1030E0004FA23146284601F0C3F90120ACE6FFE7C4
:1030F0004EA12046FFF73BF880B91448007830B95C
:103100004DA23146284601F0B3F901209CE64FA2BA
:103110003146284601F0ACF9022095E6002093E6FE
:103120004F54415F424547494E2C00001800002093
:103130001C000020200000204F54412C4552522CEE
:10314000424547494E0A0000140000202800002094
:103150002400002000E00008008000084F54412CAB
:103160004552522C45524153450A00004F54412CC0
:10317000424547494E2C4F4B0A0000004F54415FD7
:10318000444154412C0000004F54412C4552522CD4
:1031900053544154450A00004F54412C4552522C7F
:1031A000444154410A0000004F54412C4552522CD6
:1031B00043524331360A00004F54412C4552522CA1
:1031C0004F46465345540A004F54412C4552522C09
:1031D00052455452590A00004F54412C4552522C2A
:1031E00057524954450A00004F54415F454E440030
:1031F0004F54412C4552522C53495A450A00000065
:103200004F54412C4552522C43524333320A000052
:103210004F54412C4552522C4D4554410A00000058
:103220004F54412C454E442C4F4B0A004F54415FA4
:103230005245424F4F5400004F54412C4552522C9E
:103240004E4F545F52454144590A00004F54412C9F
:103250005245424F4F54494E470A0000002006494C
:103260000870064908600649086006490860064972
:1032700008600649087070471400002018000020FC
:103280001C00002020000020240000202800002036
:1032900030B502460B464FF6FF70002118E0555C32
:1032A00080EA052000240FE000F400452DB141F232
:1032B000210585EA4005ADB203E04FF6FF7505EA4A
:1032C00040052846651CECB2082CEDD34D1CA9B274
:1032D0009942E4DB30BD000030B503460C464FF0A8
:1032E000FF31002211E0985C414000250AE001F026
:1032F000010018B1074880EA510000E04808014683
:10330000681CC5B2082DF2D3521CA242EBD3C843AD
:1033100030BD00002083B8ED70470000014600205A
:10332000034A506820F44040084350607047000052
:103330000010024029B1064A52690243044B5A6107
:1033400004E0034A52698243014B5A61704700000E
:103350000010024029B1064AD2690243044BDA61E7
:1033600004E0034AD2698243014BDA6170470000EE
:103370000010024029B1064A92690243044B9A6147
:1033800004E0034A92698243014B9A61704700004E
:103390000010024030B500210022002400232D4DF2
:1033A0006D6805F00C0121B1042905D0082923D14D
:1033B00005E0294D056022E0274D05601FE0254D01
:1033C0006D6805F47012234D6D6805F48034022594
:1033D00005EB92421CB9214D554305600BE01D4D94
:1033E0006D6805F400351DB11C4D5543056002E0C4
:1033F000194D5543056002E0174D056000BF00BF41
:10340000144D6D6805F0F0010909154D6B5C0568F8
:10341000DD4045600F4D6D6805F4E061090A104D0F
:103420006B5C4568DD4085600A4D6D6805F4605150
:10343000C90A0B4D6B5C4568DD40C560054D6D6884
:1034400005F44041890B074D6B5CC568B5FBF3F58E
:10345000056130BD0010024000127A0000093D00F5
:103460000000002010000020704710B500F002F8A6
:1034700010BD00000CB5002001900090334800689A
:1034800040F480303149086000BF3048006800F4E3
:10349000003000900198401C0190009818B90198E4
:1034A000B0F5A06FF1D12948006800F4003010B1E8
:1034B0000120009001E0002000900098012843D1F5
:1034C0002348006840F01000214908600846006861
:1034D00020F0030008600846006840F00200086021
:1034E0001A484068194948600846406848600846DC
:1034F000406840F4806048600846406820F47C10D2
:1035000048600846406840F4E81048600846006893
:1035100040F08070086000BF0C48006800F0007048
:103520000028F9D00948406820F0030007494860A6
:103530000846406840F00200486000BF0348406809
:1035400000F00C000828F9D10CBD0000001002406A
:10355000002002407047000010B51248006840F09B
:10356000010010490860084640680F4908400D49AD
:103570004860084600680D4908400A490860084646
:10358000006820F4802008600846406820F4FE00AF
:1035900048604FF41F008860FFF767FF0448054943
:1035A000086010BD001002400000FFF8FFFFF6FEAB
:1035B0000020000808ED00E01FB501210846FFF7D4
:1035C000C9FE0920ADF8080041F61F40ADF804001F
:1035D0000020ADF80A00ADF8060001A94FF08040C8
:1035E00000F07EF801221146900700F067F81C20D9
:1035F0008DF8000002208DF8010000208DF80200F7
:1036000001208DF803006846FFF700FA01218807C2
:1036100000F037F81FBD000010B50121880700F049
:103620003CF840B104480068401C0349086001218F
:10363000880700F023F810BD380000200EB50121E6
:103640000220FFF787FE41F28730ADF804004720E3
:10365000ADF800000020ADF80600ADF802006946A4
:10366000054800F03DF82021034800F030F8012122
:10367000014800F006F80EBD00040040CA43028273
:10368000704721B1028842F00102028004E0028802
:103690004FF6FE731A400280704730B50246002094
:1036A00000230024158A05EA0103958905EA01042F
:1036B00013B10CB1012000E0002030BD1AB18389A4
:1036C0000B43838102E083898B4383817047828827
:1036D0004FF68F731A40828082880A438280704737
:1036E000002202881D4B98420ED01D4B98420BD0F1
:1036F000B0F1804F08D01B4B984205D01A4B98422E
:1037000002D01A4B984204D14FF68F731A404B885F
:103710001A43174B984207D0164B984204D04FF6E5
:10372000FF431A40CB881A4302808B8883850B881D
:1037300003850A4B98420BD0094B984208D00E4B98
:10374000984205D00D4B984202D00D4B984201D1C2
:103750000B7A03860123838270470000002C01400E
:10376000003401400004004000080040000C00400C
:10377000001000400014004000400140004401409F
:103780000048014000B591B0012144F20400FFF768
:10379000F1FD01210846FFF7CDFD4FF40070ADF8B3
:1037A000400018208DF8430003208DF8420010A936
:1037B0003748FFF73CF84FF48060ADF840004820F0
:1037C0008DF8430010A93248FFF731F84FF4E1308B
:1037D0000C900020ADF83400ADF83600ADF838009C
:1037E000ADF83C000C20ADF83A000CA9294800F0D7
:1037F00017F92948FEF7A6FE2648001D0190274824
:103800000290102003900120049000200590802059
:10381000069000200790089009904FF480500A907D
:1038200000200B9001A91C48FEF751FF0122022144
:103830001948FEF743FF01228021164800F097F84F
:10384000012240F22551134800F0C4F8012111482B
:1038500000F081F80E208DF8000003208DF80100A3
:1038600000208DF8020001208DF803006846FFF764
:10387000CDF825208DF8000002208DF801000120F0
:103880008DF802006846FFF7C1F811B000BD0000D6
:10389000000801400038014044000240A40100201B
:1038A00010B540F225511F4800F06AF8002837D0C3
:1038B0001C4800F021F9C4B240F22551194800F02B
:1038C0003BF80D2C2BD00A2C17D11748008880B15B
:1038D00000201649144A1288885440F24B4214487A
:1038E000FEF732FC0020124981F84B0401201149F7
:1038F000087000200C49088011E00B48008840F255
:103900004B41884208D2084801880088401C064A7A
:1039100010800648445402E000200349088000BF9C
:1039200010BD00000038014044000020F00D0020D0
:10393000A40900204300002010B50022002340F617
:103940006A14A14200D100BF0A1201249440A3B21C
:10395000DC43048010BD21B1828942F4005282818F
:1039600004E082894DF6FF731A40828170471AB1D4
:10397000838A0B43838202E0838A8B43838270476E
:1039800070B50246002400230025002040F66A1688
:10399000B14200D100BFC1F3421501F01F0301265F
:1039A00006FA03F3012D02D19689334006E0022D79
:1039B00002D1168A334001E0968A33400C12012668
:1039C00006FA04F41688344013B10CB1012000E06B
:1039D000002070BDF0B5034600240026002500201D
:1039E00040F66A17B94200D100BF1846C1F342142D
:1039F00001F01F06012707FA06F5012C01D10C3052
:103A000004E0022C01D1103000E014301AB1076834
:103A10002F43076002E00768AF430760F0BD000076
:103A20002DE9F04786B005460E460024A24600BFA9
:103A3000A1460027B08900B100BF2F462C8A4CF662
:103A4000FF700440F08804432C82AC894EF6F310DA
:103A50000440B08831890843718908430443AC812C
:103A6000AC8A4FF6FF400440B0890443AC8201A801
:103A7000FFF790FC1F48874202D1DDF810A001E05B
:103A8000DDF80CA0A88900F4004040B10AEBCA00A0
:103A900000EB0A1031684900B0FBF1F807E00AEBCF
:103AA000CA0000EB0A1031688900B0FBF1F864200D
:103AB000B8FBF0F004012009642101FB1089A889FA
:103AC00000F4004040B1322000EBC900B0FBF1F03F
:103AD00000F00700044308E0322000EB09106421E5
:103AE000B0FBF1F000F00F0004432C8106B0BDE8FC
:103AF000F08700000038014001468888C0F30800C4
:103B0000704700BFFEE702E008C8121F08C1002A84
:103B1000FAD170477047002001E001C1121F002A4E
:103B2000FBD1704710B500F005F808B1012010BDB9
:103B30000020FCE702207047F0B502461E4D2978B0
:103B40004D1C05F003031D4D2C682D6810351B4ED0
:103B500035601B4D2D78AB4205D11A4D2D686D1C7B
:103B6000184E3560F0BD651C01EB8106164F07EB62
:103B7000C606356204EB840501EB810607EBC60639
:103B80007562002010E00AB1102500E00025054410
:103B90000E4E36F8155001EB81060B4F07EBC606AB
:103BA00026F81050451CA8B21028ECD3BFF35F8F45
:103BB000014D2B7000BFD5E72C0000203000002005
:103BC0002D00002034000020DC0000209C0000209C
:103BD00030B587B0054601AC422004F8010B2C201B
:103BE00004F8010B2946204600F020FC04460A2078
:103BF00004F8010B01A8201A81B201A800F0A4FC6E
:103C000007B030BDF0B58BB006460F46154601AC87
:103C1000442004F8010B2C2004F8010B294620460F
:103C200000F004FC04462C2004F8010B3946204621
:103C300000F0FCFB04462C2004F8010B3146204622
:103C400000F0F4FB04460A2004F8010B0448056068
:103C500001A8201A81B201A800F076FC0BB0F0BDDB
:103C6000680000202DE9F04106460F463420FEF79B
:103C70004FFD34460AE02046FEF750FD0546042D70
:103C800002D00020BDE8F08104F58064BC42F2D38C
:103C90000120F7E72DE9F04705460F46904605F06D
:103CA000010010B10020BDE8F087002426E03E5D51
:103CB000601CC0B2404504DA601C385C46EA00264D
:103CC00001E046F47F46285B4FF6FF71884204D03E
:103CD000285BB04201D00020E5E7285BB04200D16C
:103CE0000AE028193146FEF763FD8146B9F1040F59
:103CF00001D00020D7E700BFA01CC4B24445D6DBEA
:103D00000120D0E7F0B58DB004460E46042240A154
:103D10002046FEF73AFA50BB3F48007838B90A22ED
:103D20003EA12046FEF731FA08B900F04BFA002018
:103D30008DF80C00282203A92046FFF743F805461A
:103D400055B19DF80C0038B103A8FEF709FA87B207
:103D5000394603A800F0F8FB022D06D106F596704F
:103D6000314908600120314908700DB0F0BD1F22B3
:103D700021462F48FEF7E8F900202D49C8772DA1EC
:103D80002046FEF7F4F920B905212CA000F0DCFB59
:103D90003CE02CA12046FEF7EAF938B900202B4977
:103DA00008602B4908602B4908602FE020785428D0
:103DB00006D160782C2803D1A01C00F071FA25E010
:103DC00020784E2822D160782C281FD10020029024
:103DD000019001AA02A9A01C00F09AFAA8B90298C1
:103DE000002801DA002000E002981B4908600198D1
:103DF000002802DA4FF0FF3000E001981749086010
:103E00001748066001201749087000BF00BFACE7E3
:103E10004F54415F000000008C0000204F54415F70
:103E2000424547494E2C0000900000208D000020A4
:103E30004600002050494E4700000000504F4E47BA
:103E40000A0000005245534554000000680000205D
:103E50006C0000207000002074000020780000201A
:103E60007C000020800000200146302905DB392934
:103E700003DCA1F13000C0B27047412905DB4629BF
:103E800003DCA1F13700C0B2F6E7612905DB662942
:103E900003DCA1F15700C0B2EEE7FF20ECE70146DA
:103EA000302905DB392903DCA1F13000C0B27047AD
:103EB000412905DB462903DCA1F13700C0B2F6E752
:103EC000612905DB662903DCA1F15700C0B2EEE7EA
:103ED000FF20ECE70146087808B90020704700E0B1
:103EE000491C0878302802DB08783928F8DD087882
:103EF00008B90120F2E70020F0E7000000254FF4A8
:103F0000A060FEF7BBFDFFF7A9F9FFF755FBFEF731
:103F100037FDFEF75DFDFEF755FEFEF7B9FD2CA25D
:103F200001210846FEF71AFF2DA201210220FEF70B
:103F300015FFFFF727FCFFF781FBFEF747F945E088
:103F40002B480468FFF7EEFD06462A48007890B13A
:103F500029480068201A0ED400BF2848006800F4E1
:103F6000E06027490843001D24490860BFF34F8FD4
:103F700000BF00BFFEE72348007830B900F0C0FA68
:103F800018B116B1204800F083FA00F00BFB1F486F
:103F9000007888B172B640F24C421D491D48FEF7C8
:103FA000D3F800201B4981F84B041849087062B609
:103FB00021461848FFF7A6FE204600F007FA601BCE
:103FC000FA2802D3254600F05FF800BFB8E70000EA
:103FD000426C696E6B3A20202020202D2D000000BD
:103FE000526174653A2020202D2D2F6D696E0000DE
:103FF000380000208D000020900000200CED00E033
:104000000000FA058C0000207C0100204300002005
:10401000A40900203C1400202DE9FE438146884677
:1040200016461C4600270CB10A2C01D9BDE8FE83B8
:10403000A8F101002044102800D9F7E70DEB040592
:104040000020287000BF0A20B6FBF0F100FB1160D1
:104050003030691E0D4608700A20B6FBF0F6781C59
:10406000C7B20EB1A742EEDB03E02021681E054671
:10407000017068468542F8D86A4641464846FEF7D0
:104080006DFE00BFD2E7000070B53D48007840B13A
:104090003C480068002801DA002004E03948006844
:1040A00001E04FF0FF3005463548007830B1364822
:1040B0000068002802DB3448006801E04FF0FF3060
:1040C0000446FEF773FC3148007858B93048007850
:1040D00040B130480068854204D12F4800688442CE
:1040E00000D170BD2948007838B12C4A0421084617
:1040F000FEF7D0FD0020254908702548007818B14A
:1041000024480068854212D025A201210846FEF706
:1041100025FE002D06DB06232A4608210120FFF795
:104120007BFF04E020A208210120FEF717FE1848BB
:10413000007818B118480068844217D01CA20121E9
:104140000220FEF70BFE002C06DB0323224608218B
:104150000220FFF761FF04E017A208210220FEF70A
:10416000FDFD16A20B210220FEF7F8FD09480560AF
:104170000948046001200649087000BFB1E700004B
:1041800080000020740000207800002081000020C2
:104190008200002084000020880000203C120020C3
:1041A000426C696E6B3A0000202020202D2D00000B
:1041B000526174653A000000202D2D002F6D696E4C
:1041C0000000000010B500211048FFF75AFA002146
:1041D0000F48FEF7ABF90120FEF78CF972B60D48D7
:1041E00000780D490870002109483C30FEF79EF91F
:1041F00000200A4908800A4908800A4908800A49BB
:10420000087001200949087062B610BD0004004022
:10421000080002402C0000202D0000203C0000205F
:104220003E00002040000020420000208C000020C2
:104230002DE9F04705460F46904600240DE0285D25
:10424000FFF712FEFF2802D10020BDE8F087601CB6
:1042500084B2402C01D90020F7E7285D0028EED178
:1042600004F0010000B90CB90020EEE7C4F34706E2
:1042700000240FE0012101EB4401685CFFF7F4FD2D
:10428000814615F81400FFF7EFFD49EA0010385594
:10429000601C84B2B442EDDB88F800600120D4E7F2
:1042A0002DE9F0410546002409E0285DFFF7F7FD00
:1042B000FF2802D10020BDE8F081601C84B2B4F573
:1042C000806FF2D395F8000408B10020F3E70024D2
:1042D00011E015F81400FFF7E2FD0746012101EB9C
:1042E0004401685CFFF7DBFD064646EA0710064915
:1042F0000855601C84B2B4F5007FEAD3012003495D
:10430000087000BFD7E700003C12002081000020A9
:10431000F0B503460C46154600222FE0002100268A
:1043200018782D2801D101265B1C1878302802DB73
:104330001878392802DD4FF0FF30F0BD09E0114850
:10434000814205DA1878303801EB810700EB47012C
:104350005B1C1878302802DB18783928EFDD06B1AD
:10436000494242B9216018782C2802D04FF0FF3022
:10437000E3E75B1C00E02960501CC2B2022ACDD3E7
:104380000020DAE740420F0070B504460E460025D3
:104390002046FFF79FFD08B9002070BD0BE00A48DA
:1043A000854201D90020F8E72078303805EB8501F7
:1043B00000EB4105641C2078302802DB2078392886
:1043C000EDDD35600120E8E79999991970B505464A
:1043D000002402211148FEF7B5FA08B944F001049F
:1043E0004FF400610D48FEF7ADFA08B944F002043D
:1043F0008CB10B48007870B90A480068281A142854
:1044000009D30848056008480068401C0649086050
:104410002846FFF7DDFB0248047070BD000C014028
:104420009400002098000020700000203EB500227B
:1044300019B9302300F8013B3EBD0CE00A23B1FB63
:10444000F3F403FB141330331446521C0DF80430FC
:104450000A23B1FBF3F10029F0D105E0531E1A46FF
:104460001DF8033000F8013B002AF7DC00BFE3E74A
:1044700070B505460C46164604B970BD621E31463D
:104480002846FDF761FE0021601E295400BFF4E7B5
:1044900070B5054600240BE004EB84066B6A99199D
:1044A0002B6A1A1935F81400FFF7ACFB601C84B2B4
:1044B000102CF1D370BDF0B503460C461546002212
:1044C00019680AE0501CA84201D30020F0BD11F881
:1044D000017B1046561CB2B22754087810B10878F8
:1044E0002C28EFD10020A05408782C2801D1481C9A
:1044F00000E0084618600AB10120E7E70020E5E780
:1045000010B50D4804780D480078844201D1002090
:1045100010BD04EB84000A4A02EBC00128220948BE
:10452000FDF700FEBFF35F8F601C00F0030002493F
:1045300008700120ECE700002D0000202C00002076
:10454000DC0000207C01002070B50446114803887F
:1045500011480088C01A401EC0F30A05A94206DDB2
:104560000E48006808440D4E3060002070BD0022E7
:1045700007E0A05C0A4EF054581CC0F30A03501C1C
:1045800082B28A42F5DBBFF35F8F024803800846A0
:10459000ECE700003C0000203E0000206C00002002
:1045A000A401002070B51648007800B170BD154810
:1045B000058815480488A54200D1F7E7A54202DD29
:1045C000281B80B202E0C4F5006080B206460021DC
:1045D0000E48FDF7ABFF0E4820440C4944390865EE
:1045E00031460A48FEF791F80A480680012004493E
:1045F000087001210548FDF799FF00BFD6E70000CC
:10460000420000203C0000203E0000204400024008
:10461000A40100204000002010B5064801680648AB
:10462000FEF75AFE05490968884201D1012010BDF4
:104630000020FCE718000020008000081C0000207B
:1046400070B588B020221E496846FDF76BFD1D49F4
:104650001D48FFF707FB10B9002008B070BD3420DB
:10466000FEF756F8002426E05DF82460012C01D105
:1046700016480668022C01D115480668032C01D1A2
:1046800014480668B1B2104A02EB8400FEF790F8B5
:104690000546042D01D00020DFE7310C0A4A02EB69
:1046A0008402901CFEF784F80546042D01D00020FA
:1046B000D3E7601CC4B2082CD6D30120CDE700009C
:1046C000C84C000800E4000800E0000818000020C2
:1046D0001C0000202000002000000000000000005E
:1046E0000000000000000000000000F800000000D2
:1046F000000000333000000000100C06100C060013
:10470000000000000000000040C07840C078400079
:10471000043F04043F040400007088FC08300000DB
:10472000001820FF211E0000F008F000E018000033
:1047300000211C031E211E0000F0088870000000EC
:104740001E2123241927211010160E00000000003E
:104750000000000000000000000000E0180402005B
:10476000000000071820400000020418E0000000CC
:104770000040201807000000404080F080404000CA
:104780000202010F01020200000000F00000000020
:104790000101011F010101000000000000000000F4
:1047A00080B0700000000000000000000000000069
:1047B00000010101010101010000000000000000F2
:1047C000003030000000000000000000806018048D
:1047D000006018060100000000E010080810E0006A
:1047E000000F102020100F00001010F80000000033
:1047F0000020203F2020000000700808088870007A
:1048000000302824222130000030088888483000F9
:104810000018202020110E000000C02010F8000019
:1048200000070424243F240000F8088888080800B2
:104830000019212020110E0000E0108888180000C7
:10484000000F112020110E0000380808C838080099
:104850000000003F00000000007088080888700019
:10486000001C222121221C0000E010080810E0009A
:104870000000312222110F00000000C0C000000023
:104880000000003030000000000000800000000048
:104890000000806000000000000080402010080040
:1048A0000001020408102000404040404040400009
:1048B00004040404040404000008102040800000E4
:1048C0000020100804020100007048080808F000E9
:1048D0000000003036010000C030C828E810E000B9
:1048E0000718272423140B000000C038E000000044
:1048F000203C23020227382008F8888888700000AE
:10490000203F202020110E00C03008080808380081
:10491000071820202010080008F808080810E000F8
:10492000203F202020100F0008F88888E808100099
:10493000203F20202320180008F88888E80810006D
:10494000203F200003000000C030080808380000A5
:1049500007182020221E020008F808000008F808A6
:10496000203F210101213F20000808F8080800002D
:104970000020203F2020000000000808F808080060
:10498000C08080807F00000008F888C028180800D8
:10499000203F20012638200008F808000000000011
:1049A000203F20202020300008F8F800F8F8080008
:1049B000203F003F003F200008F830C00008F80802
:1049C000203F200007183F00E01008080810E00012
:1049D0000F10202020100F0008F808080808F00029
:1049E000203F210101010000E01008080810E0004C
:1049F0000F18242438504F0008F8888888887000E1
:104A0000203F2000030C3020007088080808380080
:104A10000038202121221C00180808F80808180076
:104A20000000203F2000000008F808000008F808F7
:104A3000001F202020201F000878880000C83808A8
:104A4000000007380E010000F80800F80008F80020
:104A5000033C0700073C03000818688080681808BA
:104A600020302C03032C30200838C800C838080038
:104A70000000203F2000000010080808C838080087
:104A80002038262120201800000000FE020202002B
:104A90000000007F40404000000C30C000000000DB
:104AA000000000010638C00000020202FE00000003
:104AB000004040407F0000000000040202020400A9
:104AC00000000000000000000000000000000000E6
:104AD00080808080808080800002020400000000CE
:104AE00000000000000000000000808080800000C6
:104AF0000019242222223F2008F8008080000000B4
:104B0000003F112020110E00000000808080000076
:104B1000000E112020201100000000808088F80085
:104B2000000E112020103F200000808080800000B7
:104B3000001F222222221300008080F0888888181B
:104B40000020203F20200000000080808080800026
:104B5000006B94949493600008F8008080800000BB
:104B6000203F210000203F20008098980000000096
:104B70000020203F202000000000008098980000C6
:104B800000C08080807F000008F8000080808000E6
:104B9000203F24022D302000000808F8000000000B
:104BA0000020203F202000008080808080808000C6
:104BB000203F20003F20003F808000808080000058
:104BC000203F210000203F200000808080800000E6
:104BD000001F202020201F00808000808000000017
:104BE00080FFA12020110E00000000808080800046
:104BF000000E112020A0FF80808080008080800037
:104C000020203F2120000100000080808080800063
:104C10000033242424241900008080E080800000D8
:104C20000000001F20200000808000000080800025
:104C3000001F202020103F20808080000080808086
:104C400000010E3008060100808000800080808016
:104C50000F300C030C300F0000808000808080003B
:104C60000020312E0E312000808080000080808066
:104C700080818E7018060100008080808080800016
:104C80000021302C2221300000000000807C020234
:104C900000000000003F404000000000FF00000056
:104CA00000000000FF0000000002027C8000000005
:104CB0000040403F00000000000601010202040421
:104CC00000000000000000004F54413100000000CF
:104CD000000000000000000052414459ADBEBBA6D8
:104CE000B0ABBECEFFFFFFFF084D00080000002064
:104CF0009C000000063B0008A44D00089C0000201A
:104D0000EC1B0000163B0008000000000102030439
:104D10000102030406070809020406080000000057
:104D20000000000000000000000000000000000083
:104D30000000000000000000000000000000000073
:104D400000000000000000000000000000006E6F86
:104D50006E65000000000000000000000000000080
:104D60000000000000000000000000000000000043
:104D70000000000000000000000000000000000033
:104D8000FFFFFFFF0000000000010000FFFFFFFF2A
:104D9000FFFFFFFF00000000000000000000000017
:044DA000000000000F
:04000005080020EDE2
:00000001FF
