:020000040800F2
:10200000005000201D380008F13C0008F33C000897
:10201000F53C0008F73C0008F93C0008000000000F
:10202000000000000000000000000000FB3C000871
:10203000FD3C000800000000FF3C0008013D0008D6
:102040006D3800086D3800086D3800086D380008DC
:102050006D3800086D3800086D3800086D380008CC
:102060006D3800086D3800086D380008A926000892
:102070006D3800086D380008D92600086D38000852
:102080006D3800086D3800086D3800086D3800089C
:102090006D3800086D3800086D3800086D3800088C
:1020A0006D3800086D3800086D3800086D3800087C
:1020B0007D2600086D3800086D3800086D3800086E
:1020C0006D3800086D3800086D3800086D3800085C
:1020D0006D380008112700086D3800086D380008B9
:0C20E0006D3800086D3800086D380008ED
:1020EC0010F8012B11F8013B012A28BF9A42F7D0B6
:1020FC00D01A7047034613F8012B002AFBD1181A8B
:10210C000138704708B5064B1A783AB9054A1AB126
:10211C000548AFF30080024B01221A7008BD00BFC6
:10212C0034000020000000008841000808B5034B73
:10213C001BB103490348AFF3008008BD0000000049
:10214C00380000208841000807B50121082001F063
:10215C0029FE044B044801A9019301F05DFD03B075
:10216C0000BD00BF02080348000C014007B5012167
:10217C00042001F017FE064B01A90648019301F05B
:10218C004BFD0621034801F0A4FD03B000BD00BFC8
:10219C000600031000080140022108B5084801F0B0
:1021AC0092FD022138B9BDE8084000F1804000F5ED
:1021BC00843001F08EBD0248BDE8084001F08BBDB3
:1021CC000008014013B54FF400740121082001F000
:1021DC00E9FD0C4B01A90C48019301F01DFD01A96F
:1021EC000948ADF8044001F017FD01224FF480714D
:1021FC00054801F072FD01222146034801F06DFDF6
:10220C0002B010BD00010314000C014008B50122FE
:10221C004FF400710B4801F060FD01224FF4807106
:10222C00084801F05AFD00224FF40071054801F0F6
:10223C0054FDBDE8084000224FF48071014801F0C4
:10224C004CBD00BF000C014008B500224FF40071DA
:10225C00084801F042FD01224FF48071054801F05D
:10226C003CFDBDE8084001224FF40071014801F02B
:10227C0034BD00BF000C014070B50546002480261B
:10228C0046FA04F32B4214BF012200224FF40071D2
:10229C000F4801F022FD01224FF480710C4801F02F
:1022AC001CFD013400224FF48071094801F015FD2A
:1022BC00082CE5D101224FF48071054801F00DFD89
:1022CC00BDE8704000224FF48071014801F005BD5B
:1022DC00000C014010B50446FFF798FF7820FFF77B
:1022EC00CBFF0020FFF7C8FF2046FFF7C5FFBDE876
:1022FC001040FFF7A9BF10B50446FFF787FF782001
:10230C00FFF7BAFF4020FFF7B7FF2046FFF7B4FFF7
:10231C00BDE81040FFF798BF10B50C4640F0B00078
:10232C00FFF7D8FF200940F01000FFF7D3FF04F0AF
:10233C000F00BDE81040FFF7CDBF38B500250021D8
:10234C00E8B2FFF7E9FF80240020013CFFF7D3FF40
:10235C0014F0FF04F8D10135082DF0D138BD2DE96A
:10236C00F84304461746EAB107281BD8D1B10144FB
:10237C00082917DC4FF00008CDB200212046FFF7EA
:10238C00CBFF802607EB080919F8010B013EFFF77C
:10239C00B2FF16F0FF06F7D10134E4B2AC4208F1FB
:1023AC008008EAD1BDE8F8832DE9F04116460825EE
:1023BC004C1E0746E4000138E4B24000214600F010
:1023CC00FE00FFF7A9FF104B03EB061818F8010FDE
:1023DC00013DFFF790FF15F0FF05F7D121460824CA
:1023EC0078000138C0B2FFF797FF084B203E03EB93
:1023FC00061616F8010F013CFFF77DFF14F0FF04E1
:10240C00F7D1BDE8F08100BFBF410008C743000809
:10241C00F8B506460F46154600242A5D02B9F8BDEC
:10242C00E1193046C9B20134FFF7BEFFE4B2F4E75C
:10243C0008B5FFF7C7FEAE20FFF74CFFD520FFF71E
:10244C0049FF8020FFF746FFA820FFF743FF3F20FE
:10245C00FFF740FFD320FFF73DFF0020FFF73AFFC7
:10246C004020FFF737FFA120FFF734FFC820FFF70C
:10247C0031FFDA20FFF72EFF1220FFF72BFF812010
:10248C00FFF728FFCF20FFF725FFD920FFF722FF0A
:10249C00F120FFF71FFFDB20FFF71CFF3020FFF7B9
:1024AC0019FFA420FFF716FFA620FFF713FF8D20BE
:1024BC00FFF710FF1420FFF70DFFAF20FFF70AFF07
:1024CC00BDE80840FFF739BF0449054BCA6802F460
:1024DC00E0621343CB60BFF34F8FFEE700ED00E0EB
:1024EC000400FA05F0B5174B174E34781A681968C2
:1024FC00E5B210311960154B01341B7804F003045C
:10250C00A34204D1124A136801331360F0BD282191
:10251C00104B01FB0533511C02EB82025A620E4A2E
:10252C00196202EB401202F120071D461068516837
:10253C00083203C5BA422B46F7D1BFF35F8F347014
:10254C00E4E700BF801700208517002084170020C7
:10255C007C170020B017002050180020F0B5002484
:10256C0085B0154601AAD718D4544FF00A0E3C4634
:10257C00B5FBFEFC0EFB1C56092D06F1300604F8CB
:10258C00016D04D93E1BF6B29E426546F0D3202362
:10259C0001E004F8013D9442FBD8FFF739FF05B088
:1025AC00F0BDF0B585B021B9302300F8013B05B082
:1025BC00F0BD01AA002317460A26B1FBF6F506FB6F
:1025CC001514092904F13004294603F1010302F81A
:1025DC00014BF2D81A46411E013ABC5C01F8014F7E
:1025EC00002AF9D11844E2E703463038C0B2092872
:1025FC000DD9A3F14102052A02D8373BD8B2704756
:10260C00A3F16102052A01D8573BF7E7FF20704779
:10261C0070B5124A124C238812889BB202F2FF72D8
:10262C00D21AC2F30A028A420BD30E4D42189042C0
:10263C000CD1BFF35F8F23800B4B1A6811441960C8
:10264C0003E00A4A13680B44136070BD10F8016B69
:10265C00EE540133C3F30A03E9E700BF720F002005
:10266C00740F0020760F0020BC040020D006002040
:10267C0008B501214FF0804001F00EFC50B1064A24
:10268C00012113684FF0804001331360BDE808400E
:10269C0001F00EBC08BD00BF7817002008B504205F
:1026AC0001F03AFA28B1042001F038FA0020FFF7C3
:1026BC0019FF022001F030FA38B1022001F02EFA95
:1026CC00BDE808400120FFF70DBF08BD08B54FF469
:1026DC00005001F021FA70B14FF4005001F01EFAD5
:1026EC00054A064B11881B880B44C3F30A0313805D
:1026FC000022034B1A7008BD720F0020700F0020CF
:10270C006F0F002038B540F225511A4801F04FFCEC
:10271C0028B3184801F047FC40F22551C4B21548C3
:10272C0001F064FC144A0D2C136803F101031360CF
:10273C0015D0124D0A2C2B8812D173B10024104ADB
:10274C000F49D4540F4840F24B4201F0DFFC0122F8
:10275C000C4B83F84B440C4B1A7000232B8038BD68
:10276C0040F24A429342F8D85A1C2A80044AD45464
:10277C00F5E700BF00380140B8040020D406002063
:10278C00D6060020220B00206E0F00202DE9F04F02
:10279C004FF4A06095B000F0A1FC00F089FD012180
:1027AC00084601F00BFB092341F61F4109ACCDE9AA
:1027BC0009134FF08040214601F00CFB01224FF031
:1027CC008040114601F057FBA14B04A8049300F084
:1027DC008FFC01214FF0804001F044FBFFF7B4FC6B
:1027EC000121082001F0DEFA9A4B21469A48099300
:1027FC0001F012FAFFF7BAFCFFF71AFEFFF79DFD86
:10280C000121964A0846FFF703FE954A0121022052
:10281C00FFF7FEFD012144F2040001F0C3FA01218F
:10282C00084601F0B3FA8F4B8F4802A94FF4806829
:10283C00029301F0F1F948238B4802A900268DF888
:10284C000B30ADF8088001F0E7F94FF4E133CDE936
:10285C0004364FF4402304A984480693ADF81C6059
:10286C0001F02AFB824801F093F8824B0125099371
:10287C00814B80270A931023CDE90B354FF48053FD
:10288C0021467B48CDE91236CDE90E76CDE91066AE
:10289C000D9601F0F7F82A460221754801F019F956
:1028AC002A463946714801F075FB2A4640F22551FB
:1028BC006E4801F056FB29466C4801F049FB6F4B02
:1028CC0003A8039300F014FC40F2252303A8ADF8F1
:1028DC000C308DF80E5000F00BFC2946022001F054
:1028EC006DFA41F2873347202146CDE9090364484C
:1028FC0001F070FA2021624801F0C6FA29466048BE
:10290C0001F0B0FA29464FF4017001F04BFA4FF484
:10291C00004001F0F1F92946284601F037FA594BED
:10292C0002A95148029301F077F9574801F030F8A9
:10293C00564B4FF480720993554B2146CDE90A361C
:10294C002023CDE90C3611934FF400534E48CDE9BA
:10295C001236CDE90F280E9701F094F82A4606217D
:10296C00494801F0B6F82946474801F0A7F8494B09
:10297C0003A8039300F0BCFB4FF40023464804A9C2
:10298C00CDE906360496ADF814608DF8205000F0B1
:10299C0069FF07232A4631463F4800F0ABFF294622
:1029AC003D4800F08CFF29463B4800F0E8FF3A48D0
:1029BC00294600F07BFF384800F08AFF364800F0CB
:1029CC008CFF0028FAD1344800F08BFF324800F01D
:1029DC008DFF0028FAD18346304B01211E481D681B
:1029EC0001F06BF9031E18BF01232D4A117899428F
:1029FC0018BF13702B491CBF2B4A15600A789A42DA
:102A0C0013D0294A1268AA1A1D2A0ED90B7060B16C
:102A1C00264A2748137883F001011170254A0621B4
:102A2C00012B08BF1046FFF7F3FD234BDFF88C801A
:102A3C001B78002B46D098F80030002B42D147F27F
:102A4C002F521F4B1B68EB1A93423BD9FFF73CFDEF
:102A5C001C02000101000328000C0140BE490008C3
:102A6C00CC4900080002031800080140003801405E
:102A7C004400024004380140760F00200E03000190
:102A8C000004004001000300080002404C240140F7
:102A9C00501800200B010001002401407817002081
:102AAC00B5040020B4040020B0040020AF040020C2
:102ABC00B0490008B7490008AD040020AC04002060
:102ACC00A404002098F8003023B1A74B1B68EB1A24
:102ADC00002BBBDAA54B1F78002F4FD1DFF890925B
:102AEC00A44A99F8003012785FFA83FE934245D0DD
:102AFC002822A14BA14E02FB0E3CBCE80F000FC6D6
:102B0C00BCE80F000FC69CE8030086E80300BFF387
:102B1C005F8F203E334642F644420EF1010E0EF01A
:102B2C00030E89F800E007F0FF0736F8021B07EBED
:102B3C0087090191596A0DF126008944196AADF88B
:102B4C0024203944FFF72DFD4FF02C0A494600F89C
:102B5C0001ABFFF726FD019900F801ABFFF721FD52
:102B6C000A2100F8011B001B81B201372046FFF738
:102B7C004FFD102F42F64442804BD6D1DFF8009225
:102B8C0099F800300BBB7F4B1E887F4BB6B21F8869
:102B9C00BFB2BE4219D04FF000017C488CBFF61B6F
:102BAC00C7F5006600F08AFF794BB6B21F44794B2B
:102BBC00314676481F6500F094FF0121764B73482F
:102BCC001E8089F8001000F079FFDFF8D0A19AF888
:102BDC000030002B62D072B60027714E40F24C428E
:102BEC003046704901F092FA86F84B748AF80070FE
:102BFC0062B66D493046FFF773FA58B96B4B6C4AA5
:102C0C0018786C4B0621B8420CBF10461846FFF7DB
:102C1C00FFFC43E004223046674901F065FA0028C6
:102C2C0040F00B81514B1B7803F0FF071BBB304668
:102C3C0000F0FEFAF8B13946604801F013F9394654
:102C4C005F4800F03BFF012000F05CFF72B6494B7F
:102C5C00474A1B7839464D48137000F02FFF494BFB
:102C6C00424A1F80484B1F804B4B1F80012389F821
:102C7C000070137062B6534B28221D60002321464E
:102C8C0047488DF8243000F02DFB0646002840F014
:102C9C00B780364B1B78002B40F0C78002214A4886
:102CAC0001F00BF84FF400610646474801F005F8B7
:102CBC00464F002840F05581B6FA86F6760946F064
:102CCC0002063B78D3B9424A1368EB1A132B15D979
:102CDC001560404A294613680DF126000133136034
:102CEC0042F64243ADF82430FFF75BFC0A2300F8B0
:102CFC00013B001B81B22046FFF78AFCA5EB0B03BE
:102D0C00F92B3E707FF668AE334B1B78002B00F02E
:102D1C002D81324B1E68324B26EAE6761F6847EA55
:102D2C00E777304BDFF8C0B093F800A0FFF734FA28
:102D3C009BF80030DFF8B490DFF8B480002B40F043
:102D4C0033812C4B1B78002B40F0148101212A4A33
:102D5C000846FFF75DFB721C40F06B8108210120D7
:102D6C00264AFFF755FB6AE1A8040020AD040020B9
:102D7C008417002085170020B0170020881700202A
:102D8C006F0F0020740F0020720F002044000240CF
:102D9C00760F002000000240700F00206E0F002004
:102DAC0050000020220B0020DB490008AF0400205B
:102DBC00B7490008B0490008E04900080004004089
:102DCC0008000240A4040020000C0140A0040020D4
:102DDC009C040020CC06002011000020C806002016
:102DEC00C4060020C00400201000002004000020B5
:102DFC0000000020AE040020FF490008C54900086F
:102E0C009DF8243033B12046FFF774F981B2204687
:102E1C00FFF7FEFB022E7FF43CAF974A05F5967345
:102E2C001360012388F8003038E7082220469349C4
:102E3C0001F05AF90028F0D030E731461F229048B3
:102E4C0001F064F98E4B30468E49DF77FFF748F975
:102E5C0010B905218C48DAE630468C49FFF740F969
:102E6C0020B98B4B18608B4B186017E73378542BB9
:102E7C0031D173782C2B7FF411AF314606F1010858
:102E8C0018F8010FFFF7B0FBFF283FF407AF01372D
:102E9C00BFB2B7F5806FF3D196F80234002B7FF4F4
:102EAC00FDAE012640F201297B4F8878FFF79CFB91
:102EBC008046C878FFF798FB013640EA08104E456B
:102ECC0007F8010B01F10201EFD10123734A1370D2
:102EDC00734A1370E2E64E2B7FF4E0AE73782C2B22
:102EEC007FF4DCAE3A464FF00A08DFF8B8E1023660
:102EFC0033782D2B08BF0136337808BF4FF0010C07
:102F0C00A3F13003DBB218BF4FF0000C092B3FF6D6
:102F1C00C5AE00233078A0F130015FFA81F9B9F128
:102F2C00090F10D9BCF1000F00D05B4297B15E497C
:102F3C0022EAE2720A605D4A43EAE37313600122FB
:102F4C005B4B1A70AAE608FB031101367345D8BF18
:102F5C000B46DFE72C287FF4A1AE1A460127013679
:102F6C00C6E70EB90126ACE60026C7E64FF0FF36E1
:102F7C003746D6E6D9F80030B3427FF4E7AED8F83E
:102F8C000030BB4222D1BAF1000F0BD1494B1A6869
:102F9C00494B1B689A4219D1484B1A68484B1B681D
:102FAC009A4213D1AB4617E504213B4A0846FFF77A
:102FBC00D6F900238BF80030424B1B78002B3FF4E2
:102FCC00C5AED9F80030B3427FF4C0AED8F80030AB
:102FDC009F4238D1BAF1000F23D1DFF8D8B00121CC
:102FEC000320394AFFF714FA082304210320DBF8E5
:102FFC000020FFF7B3FA01210420344AFFF708FA46
:10300C000421DFF8B8A00823DAF800200846FFF7FF
:10301C00A5FADBF80020284B1A60DAF80020284BC0
:10302C001A600123274AC9F80060C8F800701370B1
:10303C00B8E70623324608210120FFF78FFA214B0F
:10304C001B78002BC2D101210220214AFFF7E0F9A5
:10305C007B1C0BD003233A4608210220FFF77EFA93
:10306C000B2102201B4AFFF7D3F9B3E708210220FA
:10307C00194AFFF7CDF9F3E7A8040020E549000849
:10308C0012000020EE490008F3490008F949000835
:10309C00D0060020CC060020C10400201000002027
:1030AC00C00400203F420F00C8060020C4060020C8
:1030BC0011000020BC0400200C000020B8040020EB
:1030CC0008000020AE0400200C4A00080F4A00083B
:1030DC00064A0008D6490008C8490008034B40F0CE
:1030EC00BF6040F40030D860704700BF00ED00E0D6
:1030FC0070B50125017801F01F039D40C3784C0980
:10310C00B3B10E4B4678DA68D243C2F30222C2F155
:10311C0004039E4083780F2020FA02F21340084AE1
:10312C0033431B01114481F8003342F8245070BD25
:10313C00034B203443F82450F9E700BF00ED00E0C6
:10314C0000E100E038B5044634200D4600F0FCFCEC
:10315C00AC4201D3012038BD204600F021FD0428EB
:10316C0002D104F58064F3E70020F4E7F0B50378AE
:10317C004BB10138024612F8013FA3F13004092C7F
:10318C00F9D99BB100231846F0BDB442FBD80AD044
:10319C0007FB042410F8012F303AD5B2092DF4D9CD
:1031AC0001230C60EFE7052AF2DDECE71C460A2749
:1031BC00004EEFE79999991903463038C0B20928A7
:1031CC000DD9A3F14102052A02D8373BD8B270477A
:1031DC00A3F16102052A01D8573BF7E7FF2070479E
:1031EC0038B50C46054611462CB1013C224600F080
:1031FC008DFF00232B5538BD002270B503681C7859
:10320C001D460CB12C2C0BD100268E5494B21A787E
:10321C002C2A08BF5D1C0560201E18BF012070BD44
:10322C005F2A03D08C5401330132E8E70020F6E723
:10323C0030B50A22CDB01D49054600F055FF10B13E
:10324C0000204DB030BD0A35684604A90095FFF743
:10325C00D3FF0028F4D068461CA9FFF7CDFF002847
:10326C00EED0684634A9FFF7C7FF0028E8D001A9C3
:10327C0004A8FFF77BFF0028E2D002A91CA8FFF7E7
:10328C0075FF0028DCD003A934A8FFF76FFF0028D6
:10329C00D6D0009B1B78002BD2D145F6F673019843
:1032AC000A3898428CBF00200120CAE7124A000855
:1032BC000023064A1370064A1360064A1360064A36
:1032CC001360064A1360064A13707047A418002056
:1032DC00A01800209C18002098180020941800209A
:1032EC00901800202DE9F04F0C461546D9B00A2253
:1032FC009B49064600F0F8FE002852D102AF0A3670
:10330C00384610A93E60FFF777FF40B9954A294629
:10331C002046FFF765FF012059B0BDE8F08F384615
:10332C0028A9FFF769FF0028F0D0384640A9FFF71D
:10333C0063FF0028EAD0DFF8308210A84146FFF77F
:10334C0015FF0028E2D0894928A8FFF70FFF0028B5
:10335C00DCD0874940A8FFF709FF0028D6D03B688E
:10336C001E78002ED2D145F6F672D8F800300A3B02
:10337C009342CBD800F0D4FB7E4B7F4F1E707F4B1B
:10338C007F4980483E701E60FFF7DCFE18B900F0E4
:10339C00D3FB7D4ABBE700F0CFFB01237B4A3B709C
:1033AC00B5E7092230467A4900F09EFE002840F02D
:1033BC001881714B1B780BB9764AA8E702AF093616
:1033CC00384610A93E60FFF717FF08B9724A9EE70E
:1033DC00384628A9FFF710FF0028F7D0384640A937
:1033EC00FFF70AFF0028F1D03B681E78002EEDD1C4
:1033FC0003A910A8FFF7BAFE0028E7D004A940A83B
:10340C00FFF7B4FE0028E1D028A9884698F8007090
:10341C007FBBF007B3B2D9D4002BD7D03E464FEACE
:10342C0053080DF1200B0878FFF7C6FE0190487881
:10343C00FFF7C2FE0136019BB2B240EA0310904581
:10344C000BF8010B01F10201EDD8474B039E1B68F1
:10345C009E42BBD89B1B9845B8D816F00109B5D134
:10346C00414608A800F0BEF9049B98420CD04B4A88
:10347C004DE73846FFF7A0FEFF28A7D00136412EB6
:10348C0008F10108C2D1A1E7DFF8F0A0DAF80030AA
:10349C009E4201D9424A3AE704D24644B3423AD258
:1034AC00404A34E700F03CFB4FF6FF7206F1006631
:1034BC005FFA88FB06F5004608AB09F10100C0B2C3
:1034CC00584538BF5878197838BF41EA0021308800
:1034DC0028BF41F47F4180B2904207D0308880B23F
:1034EC00884203D000F028FB2F4A10E7308880B2C6
:1034FC0081422BD109F102095FFA89F1594503F197
:10350C00020306F10206D8D300F016FBDAF80030FD
:10351C004344CAF800300F2D7FF6FDAE41214F22F7
:10352C00A1702270217154224321627061712C228E
:10353C004B21E270A171E271C3BB302204F109038B
:10354C0022720A221A7000225A70E4E63046019365
:10355C0000F046FB04284FF6FF72019BCAD0C1E76E
:10356C00124A00081D4A0008A01800209C180020D0
:10357C009818002090180020A418002094180020FF
:10358C0000E00008008000082C4A00083B4A0008B4
:10359C00494A0008534A0008624A0008704A000869
:1035AC007F4A00088F4A00089E4A00080A2604F148
:1035BC00080205A8B3FBF6F43D4606FB14310137AF
:1035CC003031092BFFB223464155F3D83B46114607
:1035DC000BB9D319B5E7013BDBB2C45C01F8014B65
:1035EC00F6E730465B49FEF77BFDA8B900F098FA88
:1035FC0059495A48FFF7A6FD18B900F09DFA584AE8
:10360C0085E600F099FAFFF753FE564A2046294604
:10361C00FFF7E6FD02207FE630465349FEF760FDDA
:10362C00002840F08880514B1B783BB1DFF840916B
:10363C00504BD9F800101B688B4201D04E4A66E6FD
:10364C0045F6F673A1F10A029A4242D84B48036838
:10365C0003F16042013AB2F5A04F3AD213F00708D9
:10366C0037D14368DA0734D5454A23F00103934236
:10367C002FD903F17842A2F50052881E824228D835
:10368C0003F5C0431A884FF6FF739A4221D03B488A
:10369C0000F08EF8DFF8ECA0DAF80030984218D180
:1036AC00394F40AE00F03CFA0FCF0FC697E80F0031
:1036BC0086E80F0028492948FFF744FD064650B913
:1036CC000026324F3E7000F037FA3B788BBB304A05
:1036DC001DE6304A1BE6342000F036FADFF8B8B0AD
:1036EC00B8F1010F16D1D9F80070B9B2ABF10200E4
:1036FC0000F076FA0428E3D15846390C00F070FA41
:10370C000428DDD108F10108B8F1080F0BF1040B06
:10371C00E6D1D6E7B8F1020F02D1DAF80070E4E78F
:10372C00B8F1030F0DBF1D4A40AB53F82870176852
:10373C00DBE71B4AEBE530461A49FEF7D1FC30B902
:10374C00124B1B780BB9184AE1E5184A5EE70020CA
:10375C00E2E500BFAD4A000800E4000800E0000804
:10376C00B74A0008C64A0008D44A0008A41800202A
:10377C00A018002094180020DC4A000800800008E3
:10378C00072000089C180020A04100089018002079
:10379C00F94A0008EA4A000802E0000898180020DC
:1037AC00074B0008134B00081E4B0008314B000858
:1037BC0070B54FF0FF3300248C4201D1D84370BD5B
:1037CC00225C53400822064D43F30006013A354073
:1037DC0012F0FF0285EA5303F5D10134ECE700BF88
:1037EC002083B8ED024601444FF6FF7010B5074C2C
:1037FC00914200D110BD12F8013B80EA0323180A54
:10380C0034F8100080EA032398B2F1E7C0410008B5
:10381C000D4885460D480E490E4A002302E0D45847
:10382C00C4500433C4188C42F9D30B4A0B4C0023FC
:10383C0001E013600432A242FBD300F0DDFB00F088
:10384C0079FCFEF7A3FF7047005000200000002019
:10385C0034000020644B000834000020A81800201D
:10386C00FEE7000043680A7923F4702323F4807385
:10387C0043EA02230A6810B5134343608468D1E914
:10388C0002231343084A224013434A7943EA420372
:10389C0083600A7CC36A013A23F47003D2B243EA10
:1038AC000253C36210BD00BFFDF7F1FF836819B16D
:1038BC0043F001038360704723F00103FAE7836848
:1038CC0019B143F480738360704723F48073FAE773
:1038DC00836843F00803836070478068C0F3C000BE
:1038EC007047836843F00403836070478068C0F3BB
:1038FC0080007047092970B51BD90726A1F10A046D
:10390C00C56804EB4404A64025EA060503FA04F452
:10391C002C43C460062A17D81F24013A436B02EBD0
:10392C008202944023EA040301FA02F21A4342632E
:10393C0070BD0725046901EB4106B54024EA050476
:10394C00B34023430361E5E70C2A0CD81F24073A44
:10395C00036B02EB8202944023EA040301FA02F2A5
:10396C001A430263E4E71F240D3AC36A02EB820296
:10397C00944023EA040391401943C162D8E7836859
:10398C0019B143F480138360704723F48013FAE772
:10399C00036823F001031B041B0C0360002303606A
:1039AC0043608360C360294B984204D1284A536812
:1039BC0043F00F0326E0274B984204D1244A536866
:1039CC0043F0F0031EE0244B984204D1204A536884
:1039DC0043F4706316E0214B984204D11C4A53689F
:1039EC0043F470430EE01E4B984204D1184A5368BE
:1039FC0043F4702306E01B4B984205D1144A5368DC
:103A0C0043F4700353607047174B984204D1104A2B
:103A1C00536843F07063F5E7144B984201D1144A94
:103A2C00C5E7144B984201D1114AC8E7124B984292
:103A3C0001D10F4ACBE7114B984201D10C4ACEE78A
:103A4C000F4B9842DFD10A4AD1E700BF0800024071
:103A5C00000002401C0002403000024044000240C2
:103A6C00580002406C0002408000024008040240F2
:103A7C00000402401C040240300402404404024092
:103A8C005804024010B58B680C6A026823430C6919
:103A9C006FF30E1223434C6923438C692343CC6987
:103AAC0023434C6A23438C6A234313430360CB6840
:103ABC0043600B6883604B68C36010BD036819B129
:103ACC0043F001030360704723F001031B041B0C3C
:103ADC00F8E7036812B10B430360704723EA010354
:103AEC00FAE7416070470000C3004CBF034B044B26
:103AFC001B68034214BF01200020704700040240E1
:103B0C0000000240C3004CBF014B024B5860704791
:103B1C000004024000000240FFF7E6BFFFF7F2BFCF
:103B2C00034B044A5A6002F188325A60704700BF56
:103B3C000020024023016745024A136943F08003C9
:103B4C001361704700200240014BD860704700BFE2
:103B5C0000200240084BDA68D10709D4DA68520712
:103B6C0008D4DB6813F0100F0CBF0420032070473F
:103B7C0001207047022070470020024010B5044617
:103B8C00FFF7E8FF012806D10CB9052010BDFFF79F
:103B9C00E1FF013CF6E7002C08BF0520F6E700002A
:103BAC0038B505464FF43020FFF7E8FF042813D151
:103BBC000A4C4FF43020236943F002032361656102
:103BCC00236943F040032361FFF7D8FF236923F0F7
:103BDC000203DB04DB0C236138BD00BF0020024074
:103BEC0070B505464FF400500E46FFF7C7FF04288A
:103BFC000FD1084C4FF40050236943F001032361AB
:103C0C002E80FFF7BBFF236923F00103DB04DB0CE1
:103C1C00236170BD002002402DE9F041CB780F8864
:103C2C00DA0648BF8A7803F00F0548BF15430A78B7
:103C3C00D2B100214FF0010C4FF00F0E02680CFABC
:103C4C0001F636EA07040BD18C000EFA04F822EACE
:103C5C00080205FA04F4282B42EA040225D1466135
:103C6C0001310829EBD10260FF2F1CD900214FF044
:103C7C00010C4FF00F0E426801F108040CFA04F429
:103C8C0034EA07060BD18E000EFA06F822EA080277
:103C9C0005FA06F6282B42EA06020AD144610131E4
:103CAC000829E9D14260BDE8F081482B08BF0661C4
:103CBC00D6E7482B08BF0461F1E78368194214BFAB
:103CCC00012000207047C368194214BF0120002056
:103CDC00704701617047416170470AB101617047DB
:103CEC00416170477047FEE7FEE7FEE7FEE770476D
:103CFC007047704770470000034A536823F44043F1
:103D0C0003435360704700BF001002401A4A10B5BD
:103D1C00536803F00C03082B2CD153685168C3F380
:103D2C008343CC0303F1020302D5516889031FD5E9
:103D3C0012494B4303605168114CC1F30311615C90
:103D4C00CB4043605168C1F30221615C23FA01F15D
:103D5C0081605168C1F3C221615CCB40C360526881
:103D6C000849C2F381328A5CB3FBF2F3036110BDE4
:103D7C000549DEE7044BDDE70010024000093D0079
:103D8C00444B0008404B000800127A00044B5A695F
:103D9C0011B102435A61704722EA0002FAE700BFF0
:103DAC0000100240044B9A6911B102439A617047AA
:103DBC0022EA0002FAE700BF00100240044BDA6965
:103DCC0011B10243DA61704722EA0002FAE700BF40
:103DDC0000100240214A0388904212D002F5006282
:103DEC0090420ED0B0F1804F0BD0A2F59832904299
:103DFC0007D002F58062904203D002F580629042B7
:103E0C0003D14A8823F070031343154A904207D01C
:103E1C0002F5806290421EBFCA8823F4407313439C
:103E2C0003808B8883850B8803850C4B98420FD0BD
:103E3C0003F5006398420BD003F54063984207D01A
:103E4C0003F58063984203D003F58063984201D157
:103E5C000B7A038601238382704700BF002C01403C
:103E6C0000100040038819B143F001030380704730
:103E7C0023F00103FAE7838912B11943818170475A
:103E8C0023EA010383817047838823F070038380C6
:103E9C008388194381807047038A8289114214BF39
:103EAC0001200020194200F0010008BF00207047DB
:103EBC00C94301827047000030B50446038ACA88A2
:103ECC0023F44053134387B0038283898A8823F4F5
:103EDC00B05323F00C0313430A890D4613434A894C
:103EEC0013438381838A8A8923F440731343838227
:103EFC0001A8FFF70BFFDDE9033214498C4208BF20
:103F0C0013461922A18953432A680D044CBF520051
:103F1C0092006421B3FBF2F3B3FBF1F201FB123319
:103F2C00A08900044BBFDB001B01323332334BBF83
:103F3C00B3FBF1F3B3FBF1F303F0070303F00F034F
:103F4C0043EA0212228107B030BD00BF00380140A5
:103F5C00838919B143F400538381704723F40053D0
:103F6C00FAE7012310B5C1F34214012C01F01F0133
:103F7C0003FA01F305D10C3042B10268134303601C
:103F8C0010BD022C0CBF10301430F5E7026822EA89
:103F9C000303F4E7838A12B119438182704723EA41
:103FAC000103838270478088C0F3080070470123A7
:103FBC00C1F3421210B5012A01F01F0403FA04F3F5
:103FCC000FD1828992B2134001220088090A8A40DB
:103FDC0080B21040002B18BF002814BF0120002015
:103FEC0010BD022A0CBF028A828AEBE70123090A60
:103FFC008B40DB4303807047364B82B01A6842F02B
:10400C0001021A605968344A0A405A601A6822F050
:10401C00847222F480321A601A6822F480221A60A8
:10402C005A6822F4FE025A604FF41F029A60002272
:10403C00009201921A6842F480321A601A6802F4F3
:10404C0000320192009A01320092019A1AB9009A38
:10405C00B2F5A06FF2D11A6812F4003218BF012227
:10406C000192019A012A30D11C4A116841F01001C9
:10407C001160116821F003011160116841F0020117
:10408C0011605A685A605A685A605A6842F48062E1
:10409C005A605A6822F47C125A605A6842F4E81248
:1040AC005A601A6842F080721A601A689201FCD544
:1040BC005A6822F003025A605A6842F002025A60AF
:1040CC005A6802F00C02082AFAD1054B054A9A608C
:1040DC0002B07047001002400000FFF800200240C0
:1040EC0000ED00E00020000810B56AB10139841819
:1040FC00027811F8013F9A4204D10130A04201D05C
:10410C00002AF5D1D01A10BD1046FCE7034610B5B5
:10411C00013932B111F8014F013A03F8014B002C6F
:10412C00F7D100211A44934200D110BD03F8011BB2
:10413C00F9E7000070B500260C4C0D4B1D1BB6EBBF
:10414C00A50F09D1002600F019F80A4C0A4B1D1BCB
:10415C00B6EBA50F05D170BD54F8043B984701365A
:10416C00EDE754F8043B98470136F1E75C4B000847
:10417C005C4B00085C4B0008604B0008F8B500BFB6
:10418C00F8BC08BC9E467047F8B500BFF8BC08BC2C
:04419C009E46704784
:1041A0004F544131000000000000000000000000FA
:1041B00052414459ADBEBBA6B0ABBECEFFFFFFFF20
:1041C00000002110422063308440A550C660E77093
:1041D000088129914AA16BB18CC1ADD1CEE1EFF13B
:1041E0003112100273325222B5529442F772D662E3
:1041F000399318837BB35AA3BDD39CC3FFF3DEE38B
:104200006224433420040114E664C774A444855432
:104210006AA54BB528850995EEE5CFF5ACC58DD5DA
:104220005336722611163006D776F6669556B44682
:104230005BB77AA719973887DFF7FEE79DD7BCC72A
:10424000C448E5588668A7784008611802282338D2
:10425000CCC9EDD98EE9AFF9488969990AA92BB97A
:10426000F55AD44AB77A966A711A500A333A122A22
:10427000FDDBDCCBBFFB9EEB799B588B3BBB1AABCA
:10428000A66C877CE44CC55C222C033C600C411C72
:10429000AEED8FFDECCDCDDD2AAD0BBD688D499D1A
:1042A000977EB66ED55EF44E133E322E511E700EC2
:1042B0009FFFBEEFDDDFFCCF1BBF3AAF599F788F6A
:1042C0008891A981CAB1EBA10CD12DC14EF16FE14A
:1042D0008010A100C230E320045025404670676082
:1042E000B9839893FBA3DAB33DC31CD37FE35EF39A
:1042F000B1029012F322D2323542145277625672D2
:10430000EAB5CBA5A89589856EF54FE52CD50DC5E9
:10431000E234C324A0148104667447642454054421
:10432000DBA7FAB79987B8975FE77EF71DC73CD739
:10433000D326F2369106B016576676761546345671
:104340004CD96DC90EF92FE9C899E9898AB9ABA989
:104350004458654806782768C018E1088238A328C1
:104360007DCB5CDB3FEB1EFBF98BD89BBBAB9ABBD9
:10437000754A545A376A167AF10AD01AB32A923A11
:104380002EFD0FED6CDD4DCDAABD8BADE89DC98D29
:10439000267C076C645C454CA23C832CE01CC10C61
:1043A0001FEF3EFF5DCF7CDF9BAFBABFD98FF89F79
:1043B000176E367E554E745E932EB23ED10EF01EB1
:1043C00000000000000000000000000000000000ED
:1043D000000000F800000000000000333000000082
:1043E00000100C06100C0600000000000000000089
:1043F00040C07840C0784000043F04043F040400FB
:10440000007088FC08300000001820FF211E00000A
:10441000F008F000E018000000211C031E211E001F
:1044200000F00888700000001E21232419272110A5
:1044300010160E0000000000000000000000000048
:10444000000000E0180402000000000718204000EF
:1044500000020418E00000000040201807000000DF
:10446000404080F0804040000202010F0102020043
:10447000000000F0000000000101011F0101010027
:10448000000000000000000080B07000000000008C
:104490000000000000000000000101010101010115
:1044A00000000000000000000030300000000000AC
:1044B0000000000080601804006018060100000081
:1044C00000E010080810E000000F102020100F007E
:1044D000001010F8000000000020203F2020000005
:1044E000007008080888700000302824222130005D
:1044F00000300888884830000018202020110E0065
:104500000000C02010F8000000070424243F24000D
:1045100000F80888880808000019212020110E00E2
:1045200000E0108888180000000F112020110E00F4
:1045300000380808C83808000000003F00000000EC
:104540000070880808887000001C222121221C00AD
:1045500000E010080810E0000000312222110F00D6
:10456000000000C0C000000000000030300000006B
:1045700000000080000000000000806000000000DB
:1045800000008040201008000001020408102000F4
:10459000404040404040400004040404040404003F
:1045A00000081020408000000020100804020100D4
:1045B000007048080808F0000000003036010000D4
:1045C000C030C828E810E0000718272423140B0087
:1045D0000000C038E0000000203C23020227382001
:1045E00008F8888888700000203F202020110E00E5
:1045F000C0300808080838000718202020100800DC
:1046000008F808080810E000203F202020100F00C4
:1046100008F88888E8081000203F20202320180090
:1046200008F88888E8081000203F200003000000F8
:10463000C03008080838000007182020221E020099
:1046400008F808000008F808203F210101213F2058
:10465000000808F8080800000020203F2020000083
:1046600000000808F8080800C08080807F00000073
:1046700008F888C028180800203F200126382000AC
:1046800008F8080000000000203F20202020300013
:1046900008F8F800F8F80800203F003F003F20002D
:1046A00008F830C00008F808203F200007183F0035
:1046B000E01008080810E0000F10202020100F0064
:1046C00008F808080808F000203F21010101000057
:1046D000E01008080810E0000F18242438504F009C
:1046E00008F8888888887000203F2000030C30205C
:1046F00000708808080838000038202121221C009A
:10470000180808F8080818000000203F20000000E2
:1047100008F808000008F808001F202020201F00CB
:104720000878880000C83808000007380E0100002B
:10473000F80800F80008F800033C0700073C0300F5
:10474000081868808068180820302C03032C30205B
:104750000838C800C83808000000203F20000000CA
:1047600010080808C8380800203826212020180022
:10477000000000FE020202000000007F40404000F6
:10478000000C30C000000000000000010638C0002E
:1047900000020202FE000000004040407F000000D6
:1047A00000000402020204000000000000000000FB
:1047B00000000000000000008080808080808080F9
:1047C00000020204000000000000000000000000E1
:1047D00000008080808000000019242222223F20D7
:1047E00008F8008080000000003F112020110E001A
:1047F0000000008080800000000E112020201100A9
:10480000000000808088F800000E112020103F205A
:104810000000808080800000001F222222221300DE
:10482000008080F0888888180020203F2020000029
:104830000000808080808000006B949494936000DE
:1048400008F8008080800000203F210000203F20E9
:1048500000809898000000000020203F20200000E9
:10486000000000809898000000C08080807F0000D9
:1048700008F8000080808000203F24022D302000B6
:10488000000808F8000000000020203F2020000061
:104890008080808080808000203F20003F20003F7B
:1048A0008080008080800000203F210000203F2089
:1048B0000000808080800000001F202020201F003A
:1048C000808000808000000080FFA12020110E0069
:1048D0000000008080808000000E112020A0FF805A
:1048E000808080008080800020203F212000010007
:1048F000000080808080800000332424242419005C
:10490000008080E0808000000000001F2020000068
:104910008080000000808000001F202020103F20A9
:10492000808080000080808000010E300806010039
:1049300080800080008080800F300C030C300F00DE
:1049400000808000808080000020312E0E31200009
:10495000808080000080808080818E701806010039
:1049600000808080808080000021302C2221300057
:1049700000000000807C020200000000003F404078
:1049800000000000FF00000000000000FF00000029
:104990000002027C800000000040403F0000000058
:1049A00000060101020204040000000000000000F3
:1049B0004442472C310A004442472C300A00426CE2
:1049C000696E6B3A20202020202D2D0052617465E5
:1049D0003A2020202D2D2F6D696E004442473F0064
:1049E0004F54415F004F54412C4552522C005049C6
:1049F0004E4700504F4E470A00524553455400421F
:104A00006C696E6B3A00526174653A0054580052FA
:104A100058004F54415F424547494E2C004F544186
:104A20002C4552522C424547494E0A004F54412CC6
:104A30004552522C45524153450A004F54412C4295
:104A40004547494E2C4F4B0A004F54415F44415457
:104A5000412C004F54412C4552522C535441544543
:104A60000A004F54412C4552522C444154410A00F3
:104A70004F54412C4552522C43524331360A004F79
:104A800054412C4552522C4F46465345540A004F30
:104A900054412C4552522C52455452590A004F54FD
:104AA000412C4552522C57524954450A004F54410B
:104AB0005F41424F5254004F54412C4552522C41B9
:104AC000424F52540A004F54412C41424F52542CF1
:104AD0004F4B0A004F54415F454E44004F54412C08
:104AE0004552522C53495A450A004F54412C4552C5
:104AF000522C43524333320A004F54412C455252F8
:104B00002C4D4554410A004F54412C454E442C4FE6
:104B10004B0A004F54415F5245424F4F54004F548F
:104B2000412C4552522C4E4F545F52454144590A34
:104B3000004F54412C5245424F4F54494E470A00B2
:104B4000020406080000000001020304010203043D
:044B50000607080943
:084B540098D5FF7F010000006D
:044B5C0039210008F3
:044B60001121000817
:104B6400FFFFFFFFFFFFFFFFFFFFFFFFFFFFFFFF51
:104B740001016E6F6E65000000000000000000007F
:104B84000000000000000000000000000000000021
:044B9400000000001D
:040000050800381D9A
:00000001FF
